{
  "address": "0xBDf55F377925D682c9750981A1E53112f1490575",
  "abi": [
    {
      "inputs": [
        {
          "internalType": "address",
          "name": "gatewayTokenContract",
          "type": "address"
        },
        {
          "internalType": "uint256",
          "name": "gatekeeperNetwork",
          "type": "uint256"
        }
      ],
      "stateMutability": "nonpayable",
      "type": "constructor"
    },
    {
      "inputs": [
        {
          "internalType": "address",
          "name": "gatewayToken",
          "type": "address"
        }
      ],
      "name": "IsGated__InvalidGatewayToken",
      "type": "error"
    },
    {
      "anonymous": false,
      "inputs": [
        {
          "indexed": true,
          "internalType": "address",
          "name": "owner",
          "type": "address"
        },
        {
          "indexed": true,
          "internalType": "address",
          "name": "spender",
          "type": "address"
        },
        {
          "indexed": false,
          "internalType": "uint256",
          "name": "value",
          "type": "uint256"
        }
      ],
      "name": "Approval",
      "type": "event"
    },
    {
      "anonymous": false,
      "inputs": [
        {
          "indexed": true,
          "internalType": "address",
          "name": "from",
          "type": "address"
        },
        {
          "indexed": true,
          "internalType": "address",
          "name": "to",
          "type": "address"
        },
        {
          "indexed": false,
          "internalType": "uint256",
          "name": "value",
          "type": "uint256"
        }
      ],
      "name": "Transfer",
      "type": "event"
    },
    {
      "inputs": [
        {
          "internalType": "address",
          "name": "",
          "type": "address"
        },
        {
          "internalType": "address",
          "name": "",
          "type": "address"
        }
      ],
      "name": "allowance",
      "outputs": [
        {
          "internalType": "uint256",
          "name": "",
          "type": "uint256"
        }
      ],
      "stateMutability": "view",
      "type": "function"
    },
    {
      "inputs": [
        {
          "internalType": "address",
          "name": "spender",
          "type": "address"
        },
        {
          "internalType": "uint256",
          "name": "amount",
          "type": "uint256"
        }
      ],
      "name": "approve",
      "outputs": [
        {
          "internalType": "bool",
          "name": "",
          "type": "bool"
        }
      ],
      "stateMutability": "nonpayable",
      "type": "function"
    },
    {
      "inputs": [
        {
          "internalType": "address",
          "name": "",
          "type": "address"
        }
      ],
      "name": "balanceOf",
      "outputs": [
        {
          "internalType": "uint256",
          "name": "",
          "type": "uint256"
        }
      ],
      "stateMutability": "view",
      "type": "function"
    },
    {
      "inputs": [
        {
          "internalType": "uint256",
          "name": "amount",
          "type": "uint256"
        }
      ],
      "name": "burn",
      "outputs": [],
      "stateMutability": "nonpayable",
      "type": "function"
    },
    {
      "inputs": [],
      "name": "claim",
      "outputs": [],
      "stateMutability": "nonpayable",
      "type": "function"
    },
    {
      "inputs": [],
      "name": "decimals",
      "outputs": [
        {
          "internalType": "uint8",
          "name": "",
          "type": "uint8"
        }
      ],
      "stateMutability": "view",
      "type": "function"
    },
    {
      "inputs": [
        {
          "internalType": "uint256",
          "name": "amount",
          "type": "uint256"
        }
      ],
      "name": "mint",
      "outputs": [],
      "stateMutability": "nonpayable",
      "type": "function"
    },
    {
      "inputs": [],
      "name": "name",
      "outputs": [
        {
          "internalType": "string",
          "name": "",
          "type": "string"
        }
      ],
      "stateMutability": "view",
      "type": "function"
    },
    {
      "inputs": [],
      "name": "symbol",
      "outputs": [
        {
          "internalType": "string",
          "name": "",
          "type": "string"
        }
      ],
      "stateMutability": "view",
      "type": "function"
    },
    {
      "inputs": [],
      "name": "totalSupply",
      "outputs": [
        {
          "internalType": "uint256",
          "name": "",
          "type": "uint256"
        }
      ],
      "stateMutability": "view",
      "type": "function"
    },
    {
      "inputs": [
        {
          "internalType": "address",
          "name": "recipient",
          "type": "address"
        },
        {
          "internalType": "uint256",
          "name": "amount",
          "type": "uint256"
        }
      ],
      "name": "transfer",
      "outputs": [
        {
          "internalType": "bool",
          "name": "",
          "type": "bool"
        }
      ],
      "stateMutability": "nonpayable",
      "type": "function"
    },
    {
      "inputs": [
        {
          "internalType": "address",
          "name": "sender",
          "type": "address"
        },
        {
          "internalType": "address",
          "name": "recipient",
          "type": "address"
        },
        {
          "internalType": "uint256",
          "name": "amount",
          "type": "uint256"
        }
      ],
      "name": "transferFrom",
      "outputs": [
        {
          "internalType": "bool",
          "name": "",
          "type": "bool"
        }
      ],
      "stateMutability": "nonpayable",
      "type": "function"
    }
  ],
  "transactionHash": "0xd5bf338fcb355dd9070d97ead3251cc5f0b6ca9791e21e7daf4c7dc4927b6060",
  "args": [
    "0xF65b6396dF6B7e2D8a6270E3AB6c7BB08BAEF22E",
    11
  ],
  "numDeployments": 1,
  "solcInputHash": "9434267b9a41aba8c2c5c9b3fc336686",
  "bytecode": "0x60806040526040518060400160405280601381526020017f536f6c6964697479206279204578616d706c6500000000000000000000000000815250600590816200004a9190620003ae565b506040518060400160405280600781526020017f534f4c425945580000000000000000000000000000000000000000000000000081525060069081620000919190620003ae565b506012600760006101000a81548160ff021916908360ff160217905550348015620000bb57600080fd5b50604051620016e2380380620016e28339818101604052810190620000e1919062000530565b8181816000806101000a81548173ffffffffffffffffffffffffffffffffffffffff021916908373ffffffffffffffffffffffffffffffffffffffff160217905550806001819055505050505062000577565b600081519050919050565b7f4e487b7100000000000000000000000000000000000000000000000000000000600052604160045260246000fd5b7f4e487b7100000000000000000000000000000000000000000000000000000000600052602260045260246000fd5b60006002820490506001821680620001b657607f821691505b602082108103620001cc57620001cb6200016e565b5b50919050565b60008190508160005260206000209050919050565b60006020601f8301049050919050565b600082821b905092915050565b600060088302620002367fffffffffffffffffffffffffffffffffffffffffffffffffffffffffffffffff82620001f7565b620002428683620001f7565b95508019841693508086168417925050509392505050565b6000819050919050565b6000819050919050565b60006200028f6200028962000283846200025a565b62000264565b6200025a565b9050919050565b6000819050919050565b620002ab836200026e565b620002c3620002ba8262000296565b84845462000204565b825550505050565b600090565b620002da620002cb565b620002e7818484620002a0565b505050565b5b818110156200030f5762000303600082620002d0565b600181019050620002ed565b5050565b601f8211156200035e576200032881620001d2565b6200033384620001e7565b8101602085101562000343578190505b6200035b6200035285620001e7565b830182620002ec565b50505b505050565b600082821c905092915050565b6000620003836000198460080262000363565b1980831691505092915050565b60006200039e838362000370565b9150826002028217905092915050565b620003b98262000134565b67ffffffffffffffff811115620003d557620003d46200013f565b5b620003e182546200019d565b620003ee82828562000313565b600060209050601f83116001811462000426576000841562000411578287015190505b6200041d858262000390565b8655506200048d565b601f1984166200043686620001d2565b60005b82811015620004605784890151825560018201915060208501945060208101905062000439565b868310156200048057848901516200047c601f89168262000370565b8355505b6001600288020188555050505b505050505050565b600080fd5b600073ffffffffffffffffffffffffffffffffffffffff82169050919050565b6000620004c7826200049a565b9050919050565b620004d981620004ba565b8114620004e557600080fd5b50565b600081519050620004f981620004ce565b92915050565b6200050a816200025a565b81146200051657600080fd5b50565b6000815190506200052a81620004ff565b92915050565b600080604083850312156200054a576200054962000495565b5b60006200055a85828601620004e8565b92505060206200056d8582860162000519565b9150509250929050565b61115b80620005876000396000f3fe608060405234801561001057600080fd5b50600436106100b45760003560e01c80634e71d92d116100715780634e71d92d1461018f57806370a082311461019957806395d89b41146101c9578063a0712d68146101e7578063a9059cbb14610203578063dd62ed3e14610233576100b4565b806306fdde03146100b9578063095ea7b3146100d757806318160ddd1461010757806323b872dd14610125578063313ce5671461015557806342966c6814610173575b600080fd5b6100c1610263565b6040516100ce9190610c37565b60405180910390f35b6100f160048036038101906100ec9190610cf2565b6102f1565b6040516100fe9190610d4d565b60405180910390f35b61010f6103e3565b60405161011c9190610d77565b60405180910390f35b61013f600480360381019061013a9190610d92565b6103e9565b60405161014c9190610d4d565b60405180910390f35b61015d61059a565b60405161016a9190610e01565b60405180910390f35b61018d60048036038101906101889190610e1c565b6105ad565b005b610197610685565b005b6101b360048036038101906101ae9190610e49565b6108e7565b6040516101c09190610d77565b60405180910390f35b6101d16108ff565b6040516101de9190610c37565b60405180910390f35b61020160048036038101906101fc9190610e1c565b61098d565b005b61021d60048036038101906102189190610cf2565b610a65565b60405161022a9190610d4d565b60405180910390f35b61024d60048036038101906102489190610e76565b610b82565b60405161025a9190610d77565b60405180910390f35b6005805461027090610ee5565b80601f016020809104026020016040519081016040528092919081815260200182805461029c90610ee5565b80156102e95780601f106102be576101008083540402835291602001916102e9565b820191906000526020600020905b8154815290600101906020018083116102cc57829003601f168201915b505050505081565b600081600460003373ffffffffffffffffffffffffffffffffffffffff1673ffffffffffffffffffffffffffffffffffffffff16815260200190815260200160002060008573ffffffffffffffffffffffffffffffffffffffff1673ffffffffffffffffffffffffffffffffffffffff168152602001908152602001600020819055508273ffffffffffffffffffffffffffffffffffffffff163373ffffffffffffffffffffffffffffffffffffffff167f8c5be1e5ebec7d5bd14f71427d1e84f3dd0314c0f7b2291e5b200ac8c7c3b925846040516103d19190610d77565b60405180910390a36001905092915050565b60025481565b600081600460008673ffffffffffffffffffffffffffffffffffffffff1673ffffffffffffffffffffffffffffffffffffffff16815260200190815260200160002060003373ffffffffffffffffffffffffffffffffffffffff1673ffffffffffffffffffffffffffffffffffffffff16815260200190815260200160002060008282546104779190610f45565b9250508190555081600360008673ffffffffffffffffffffffffffffffffffffffff1673ffffffffffffffffffffffffffffffffffffffff16815260200190815260200160002060008282546104cd9190610f45565b9250508190555081600360008573ffffffffffffffffffffffffffffffffffffffff1673ffffffffffffffffffffffffffffffffffffffff16815260200190815260200160002060008282546105239190610f79565b925050819055508273ffffffffffffffffffffffffffffffffffffffff168473ffffffffffffffffffffffffffffffffffffffff167fddf252ad1be2c89b69c2b068fc378daa952ba7f163c4a11628f55a4df523b3ef846040516105879190610d77565b60405180910390a3600190509392505050565b600760009054906101000a900460ff1681565b80600360003373ffffffffffffffffffffffffffffffffffffffff1673ffffffffffffffffffffffffffffffffffffffff16815260200190815260200160002060008282546105fc9190610f45565b9250508190555080600260008282546106159190610f45565b92505081905550600073ffffffffffffffffffffffffffffffffffffffff163373ffffffffffffffffffffffffffffffffffffffff167fddf252ad1be2c89b69c2b068fc378daa952ba7f163c4a11628f55a4df523b3ef8360405161067a9190610d77565b60405180910390a350565b60008060009054906101000a900473ffffffffffffffffffffffffffffffffffffffff1690508073ffffffffffffffffffffffffffffffffffffffff1663ff17e232336001546040518363ffffffff1660e01b81526004016106e8929190610fbc565b602060405180830381865afa158015610705573d6000803e3d6000fd5b505050506040513d601f19601f820116820180604052508101906107299190611011565b61078a5760008054906101000a900473ffffffffffffffffffffffffffffffffffffffff166040517fabd937f6000000000000000000000000000000000000000000000000000000008152600401610781919061103e565b60405180910390fd5b6000600360003373ffffffffffffffffffffffffffffffffffffffff1673ffffffffffffffffffffffffffffffffffffffff168152602001908152602001600020541461080c576040517f08c379a0000000000000000000000000000000000000000000000000000000008152600401610803906110a5565b60405180910390fd5b6001600360003373ffffffffffffffffffffffffffffffffffffffff1673ffffffffffffffffffffffffffffffffffffffff168152602001908152602001600020600082825461085c9190610f79565b925050819055506001600260008282546108769190610f79565b925050819055503373ffffffffffffffffffffffffffffffffffffffff16600073ffffffffffffffffffffffffffffffffffffffff167fddf252ad1be2c89b69c2b068fc378daa952ba7f163c4a11628f55a4df523b3ef60016040516108dc919061110a565b60405180910390a350565b60036020528060005260406000206000915090505481565b6006805461090c90610ee5565b80601f016020809104026020016040519081016040528092919081815260200182805461093890610ee5565b80156109855780601f1061095a57610100808354040283529160200191610985565b820191906000526020600020905b81548152906001019060200180831161096857829003601f168201915b505050505081565b80600360003373ffffffffffffffffffffffffffffffffffffffff1673ffffffffffffffffffffffffffffffffffffffff16815260200190815260200160002060008282546109dc9190610f79565b9250508190555080600260008282546109f59190610f79565b925050819055503373ffffffffffffffffffffffffffffffffffffffff16600073ffffffffffffffffffffffffffffffffffffffff167fddf252ad1be2c89b69c2b068fc378daa952ba7f163c4a11628f55a4df523b3ef83604051610a5a9190610d77565b60405180910390a350565b600081600360003373ffffffffffffffffffffffffffffffffffffffff1673ffffffffffffffffffffffffffffffffffffffff1681526020019081526020016000206000828254610ab69190610f45565b9250508190555081600360008573ffffffffffffffffffffffffffffffffffffffff1673ffffffffffffffffffffffffffffffffffffffff1681526020019081526020016000206000828254610b0c9190610f79565b925050819055508273ffffffffffffffffffffffffffffffffffffffff163373ffffffffffffffffffffffffffffffffffffffff167fddf252ad1be2c89b69c2b068fc378daa952ba7f163c4a11628f55a4df523b3ef84604051610b709190610d77565b60405180910390a36001905092915050565b6004602052816000526040600020602052806000526040600020600091509150505481565b600081519050919050565b600082825260208201905092915050565b60005b83811015610be1578082015181840152602081019050610bc6565b60008484015250505050565b6000601f19601f8301169050919050565b6000610c0982610ba7565b610c138185610bb2565b9350610c23818560208601610bc3565b610c2c81610bed565b840191505092915050565b60006020820190508181036000830152610c518184610bfe565b905092915050565b600080fd5b600073ffffffffffffffffffffffffffffffffffffffff82169050919050565b6000610c8982610c5e565b9050919050565b610c9981610c7e565b8114610ca457600080fd5b50565b600081359050610cb681610c90565b92915050565b6000819050919050565b610ccf81610cbc565b8114610cda57600080fd5b50565b600081359050610cec81610cc6565b92915050565b60008060408385031215610d0957610d08610c59565b5b6000610d1785828601610ca7565b9250506020610d2885828601610cdd565b9150509250929050565b60008115159050919050565b610d4781610d32565b82525050565b6000602082019050610d626000830184610d3e565b92915050565b610d7181610cbc565b82525050565b6000602082019050610d8c6000830184610d68565b92915050565b600080600060608486031215610dab57610daa610c59565b5b6000610db986828701610ca7565b9350506020610dca86828701610ca7565b9250506040610ddb86828701610cdd565b9150509250925092565b600060ff82169050919050565b610dfb81610de5565b82525050565b6000602082019050610e166000830184610df2565b92915050565b600060208284031215610e3257610e31610c59565b5b6000610e4084828501610cdd565b91505092915050565b600060208284031215610e5f57610e5e610c59565b5b6000610e6d84828501610ca7565b91505092915050565b60008060408385031215610e8d57610e8c610c59565b5b6000610e9b85828601610ca7565b9250506020610eac85828601610ca7565b9150509250929050565b7f4e487b7100000000000000000000000000000000000000000000000000000000600052602260045260246000fd5b60006002820490506001821680610efd57607f821691505b602082108103610f1057610f0f610eb6565b5b50919050565b7f4e487b7100000000000000000000000000000000000000000000000000000000600052601160045260246000fd5b6000610f5082610cbc565b9150610f5b83610cbc565b9250828203905081811115610f7357610f72610f16565b5b92915050565b6000610f8482610cbc565b9150610f8f83610cbc565b9250828201905080821115610fa757610fa6610f16565b5b92915050565b610fb681610c7e565b82525050565b6000604082019050610fd16000830185610fad565b610fde6020830184610d68565b9392505050565b610fee81610d32565b8114610ff957600080fd5b50565b60008151905061100b81610fe5565b92915050565b60006020828403121561102757611026610c59565b5b600061103584828501610ffc565b91505092915050565b60006020820190506110536000830184610fad565b92915050565b7f596f7520616c726561647920636c61696d656420796f757220746f6b656e7300600082015250565b600061108f601f83610bb2565b915061109a82611059565b602082019050919050565b600060208201905081810360008301526110be81611082565b9050919050565b6000819050919050565b6000819050919050565b60006110f46110ef6110ea846110c5565b6110cf565b610cbc565b9050919050565b611104816110d9565b82525050565b600060208201905061111f60008301846110fb565b9291505056fea26469706673582212202a53debf59bad0d942652c84f4ba3b02331119f56ce361564ca84a3e193a6b3464736f6c63430008140033",
  "devdoc": {
    "kind": "dev",
    "methods": {},
    "version": 1
  },
  "userdoc": {
    "errors": {
      "IsGated__InvalidGatewayToken(address)": [
        {
          "notice": "The gateway token is not valid."
        }
      ]
    },
    "kind": "user",
    "methods": {},
    "version": 1
  },
  "storageLayout": {
    "storage": [
      {
        "astId": 5,
        "contract": "contracts/Airdrop.sol:Airdrop",
        "label": "_gatewayTokenContract",
        "offset": 0,
        "slot": "0",
        "type": "t_address"
      },
      {
        "astId": 7,
        "contract": "contracts/Airdrop.sol:Airdrop",
        "label": "_gatekeeperNetwork",
        "offset": 0,
        "slot": "1",
        "type": "t_uint256"
      },
      {
        "astId": 84,
        "contract": "contracts/Airdrop.sol:Airdrop",
        "label": "totalSupply",
        "offset": 0,
        "slot": "2",
        "type": "t_uint256"
      },
      {
        "astId": 88,
        "contract": "contracts/Airdrop.sol:Airdrop",
        "label": "balanceOf",
        "offset": 0,
        "slot": "3",
        "type": "t_mapping(t_address,t_uint256)"
      },
      {
        "astId": 94,
        "contract": "contracts/Airdrop.sol:Airdrop",
        "label": "allowance",
        "offset": 0,
        "slot": "4",
        "type": "t_mapping(t_address,t_mapping(t_address,t_uint256))"
      },
      {
        "astId": 97,
        "contract": "contracts/Airdrop.sol:Airdrop",
        "label": "name",
        "offset": 0,
        "slot": "5",
        "type": "t_string_storage"
      },
      {
        "astId": 100,
        "contract": "contracts/Airdrop.sol:Airdrop",
        "label": "symbol",
        "offset": 0,
        "slot": "6",
        "type": "t_string_storage"
      },
      {
        "astId": 103,
        "contract": "contracts/Airdrop.sol:Airdrop",
        "label": "decimals",
        "offset": 0,
        "slot": "7",
        "type": "t_uint8"
      }
    ],
    "types": {
      "t_address": {
        "encoding": "inplace",
        "label": "address",
        "numberOfBytes": "20"
      },
      "t_mapping(t_address,t_mapping(t_address,t_uint256))": {
        "encoding": "mapping",
        "key": "t_address",
        "label": "mapping(address => mapping(address => uint256))",
        "numberOfBytes": "32",
        "value": "t_mapping(t_address,t_uint256)"
      },
      "t_mapping(t_address,t_uint256)": {
        "encoding": "mapping",
        "key": "t_address",
        "label": "mapping(address => uint256)",
        "numberOfBytes": "32",
        "value": "t_uint256"
      },
      "t_string_storage": {
        "encoding": "bytes",
        "label": "string",
        "numberOfBytes": "32"
      },
      "t_uint256": {
        "encoding": "inplace",
        "label": "uint256",
        "numberOfBytes": "32"
      },
      "t_uint8": {
        "encoding": "inplace",
        "label": "uint8",
        "numberOfBytes": "1"
      }
    }
  }
}